:020000040800F2
:100000000000012089200008D9200008D92000081C
:10001000D9200008D9200008D920000800000000DD
:10002000000000000000000000000000D9200008CF
:10003000D920000800000000D9200008D91B0008C2
:10004000D9200008D9200008D9200008D9200008AC
:10005000D9200008D9200008D11E0008D71E0008AA
:10006000DD1E0008E31E0008E91E0008D920000874
:10007000D9200008D9200008D9200008D92000087C
:10008000D9200008D9200008D9200008000000006D
:10009000000000000000000000000000EF1E00084B
:1000A000A50900081D090008B90900084109000850
:1000B00055090008690900087D090008D9200008D1
:1000C000D9200008D9200008D9200008D92000082C
:1000D000D9200008591E0008711E00080000000009
:1000E000051F0008D9200008D920000800000000E2
:1000F000000000000000000000000000D9200008FF
:1001000000000000D920000891090008D92000084B
:1001100000000000000000000000000000000000DF
:10012000D9200008D9200008D9200008D9200008CB
:10013000D9200008000000000000000000000000BE
:10014000000000000000000000000000D9200008AE
:10015000D9200008D9200008D92000088D1E0008E9
:10016000D9200008D920000800000000000000008D
:10017000000000000000000000000000000000007F
:1001800000000000D920000800000000000000006E
:04019000D92000086A
:1001940053B94AB9002908BF00281CBF4FF0FF31EA
:1001A4004FF0FF3000F00CB8ADF1080C6DE904CE4F
:1001B40002F0FCF9DDF804E0DDE9022304B0704745
:1001C400704700BF10B5054C237833B9044B13B105
:1001D4000448AFF300800123237010BD7800002091
:1001E400000000008828000808B5034B1BB1034930
:1001F4000348AFF3008008BD000000007C0000202D
:100204008828000880B500AF044800F047F89FED47
:10021400040A044800F0CCF900BF80BD940000201B
:1002240000004842AC00002080B500AF4FF47A7063
:1002340001F053FF6C21024800F0DAF900BF80BDE1
:10024400AC00002080B582B000AF786039607B6874
:10025400012B07D13B684FF6FF72934202D103484A
:1002640000F00EF800BF0837BD4680BD94000020A2
:1002740080B500AF4FF6FF710120FFF7E3FF80BDAB
:1002840010B5044600F01BF804F1100000F0B0F8BB
:1002940004F1180000F0B0F8204610BD07B5019035
:1002A40000F03EF8019901F1100000F0A2F8019964
:1002B40001F1180003B05DF804EB00F091BA4FF4BB
:1002C40000414FF48042C0E900124FF4005C042264
:1002D400C0E9022C704700000C4B1A6822F400623B
:1002E4001A609A681006FCD49A689207FCD5D96003
:1002F400064B9A68D007FCD59A681106FCD49A6814
:100304009207FCD5D868C0B2704700BF00380040DF
:10031400024A816893690B43936170470004024069
:100324002DE9F043282693B00546002432460021E7
:1003340008A802F0E7F8CDE905442A4BDFF8AC80C1
:100344001A6C42F480421A641A6C02F480420192DC
:10035400019A196B41F0020119631B6B03F002034C
:100364000093009BD5E900321343EA6813430293D8
:100374004FF003090223CDE9033902A905234046BE
:100384000793012701F059FBAB68029302A9404689
:10039400CDE90544CDE9037901F04FFB2846FFF789
:1003A400B7FFCDE90B47CDE90F4408944FF48272AF
:1003B4000D4C4FF40063CDE909234FF40073CDE9EC
:1003C4000D3608A90A232046119301F0D0FB636877
:1003D40023F010036360236843F04003236013B0E9
:1003E400BDE8F083003802400038004000040240B9
:1003F400704701607047000008490022C0E90122EB
:100404000A22C0E90312064A426102F1FA728261C9
:1004140010224262034A8262704700BF400D03000B
:1004240058026400632A8F44F8B5194B194F1546D6
:100434001A6842F001021A601A6842F002021A6055
:10044400BB6943F080530446BB6181F080010068BE
:10045400FFF742FF290E20772068FFF73DFFC5F321
:10046400074106022068FFF737FF30430602C5F351
:1004740007212068FFF730FF30430602E9B2206805
:10048400FFF72AFFBB6943F48053BB613043F8BDD7
:10049400003800400004024038B504460D4611B14E
:1004A40001292ED038BD42682321FFF7BDFFA28A5F
:1004B40024212046FFF7B8FFA26825212046FFF734
:1004C400B3FFE28A26212046FFF7AEFFE268272128
:1004D4002046FFF7A9FF228B28212046FFF7A4FF1F
:1004E400628B2A212046FFF79FFF22692B21204699
:1004F400FFF79AFF2A4620462021BDE83840FFF73F
:1005040093BF42682321FFF78FFF00222421204656
:10051400FFF78AFF002225212046FFF785FFE28AA4
:1005240026212046FFF780FFE26827212046FFF7B7
:100534007BFF002228212046FFF776FF00222A2194
:100544002046FFF771FF0022D0E789B24FF6FF7310
:1005540099420ABF4FF6FE73C182C382C28A262122
:10056400FFF762BF89B24FF6FF7399420ABF4FF695
:10057400FE7301830383028B2821FFF755BF00001C
:10058400034A8A4228BF0A46C2602721FFF74CBFAC
:1005940000FE7F00002180F82710FFF7F1BF012241
:1005A40080F8272011B12021FFF73EBF0222FAE78D
:1005B400D0ED0A7A20EE270A38B5FDEEC07A05465A
:1005C40017EE904A002C0EDD012280F8272020210E
:1005D400FFF72AFF84EAE471A1EBE4712846BDE841
:1005E4003840FFF7CDBF0021FFF7D9FFF2E7000045
:1005F4002C4B1A6842F0010270B51A601A682A4D31
:1006040042F002021A60AB6943F080530446AB61C6
:1006140000680E46FFF760FE002120772068FFF790
:100624005BFE00212068FFF757FE00212068FFF7DA
:1006340053FE00212068FFF74FFEAB691B4943F4CA
:100644008053AB6148681A4B1A681A4BB2FBF3F239
:100654004B681B1A9A42FBDCAB69206843F0805359
:10066400AB613146FFF738FE002120772068FFF7A1
:1006740033FE002106022068FFF72EFE30430602F7
:1006840000212068FFF728FE30430602002120687D
:10069400FFF722FEAB69304343F48053AB61206221
:1006A40070BD00BF0038004000040240001000E0AC
:1006B4001000002040420F0038B50D4600210446CA
:1006C400FFF796FF3DB140F0100220460021BDE83F
:1006D4003840FFF7A9BE20F01002F6E710B5052256
:1006E40004460021FFF7A0FE20460021FFF7E4FFA7
:1006F400064A70212046FFF797FE204641F28832D1
:10070400BDE810401321FFF78FBE00BF8001240015
:100714003521FFF76DBF10B5002204461421FFF701
:1007240083FE002215212046FFF77EFE00226D2164
:100734002046FFF779FE002234212046FFF774FE9D
:100744002046FFF7E5FF002221212046FFF76CFE3B
:1007540000222D212046FFF767FE002210212046AB
:10076400FFF762FE00226C212046FFF75DFE0022A7
:1007740011462046FFF758FE002270212046FFF75D
:1007840053FE002213212046FFF74EFE00222021B3
:100794002046FFF749FE217900222046FFF744FE58
:1007A400217D00222046FFF73FFE217A00222046C9
:1007B400FFF73AFEA17D00222046FFF735FE217B9C
:1007C40000222046FFF730FEA17E00222046FFF7DC
:1007D4002BFE217C20460022BDE81040FFF724BEFA
:1007E4002DE9F041002588B0CDE905553C4B07952E
:1007F4001A6B3C4E42F002021A631A6B02F00202B8
:100804000192019A1A6B42F001021A631B6B016098
:1008140003F0010300930446009B4FF001084FF4DA
:100824008053032702A93046CDE90238049701F02A
:1008340004F9B36943F48053B361A6F580660223D7
:1008440002A93046CDE90238CDE90475069501F0D8
:10085400F4F8B36943F40033B3612046FFF75BFF58
:1008640094F8243094F825201B0202F01F0203F4AC
:10087400F853134394F82620120402F470221A4306
:1008840010212046FFF7D0FD2046FFF727FF164A28
:100894006C212046FFF7C8FD29462046FFF7FCFDE2
:1008A4002A4621212046FFF7BFFD2A462D21204656
:1008B400FFF7BAFD4FF6FE712046FFF753FE2046C0
:1008C4004FF6FE71FFF741FE2046FFF763FE22213B
:1008D4002046FFF78DFE0028F9D108B0BDE8F0816D
:1008E400003802400004024042000100FEE700001C
:1008F400024B16221A604FF0FF3070475C03002051
:1009040001207047836810B5044613B103220146E1
:100914009847204610BD000010B5074C206810B160
:10092400043000F081FDA06920B1BDE8104004301E
:1009340000F07ABD10BD00BFD8000020034B18683A
:1009440010B1043000F070BD704700BFD800002023
:10095400034B586810B1043000F066BD704700BF07
:10096400D8000020034B986810B1043000F05CBD3F
:10097400704700BFD8000020034BD86810B1043082
:1009840000F052BD704700BFD8000020034B186927
:1009940010B1043000F048BD704700BFD8000020FB
:1009A400034B586910B1043000F03EBD704700BFDE
:1009B400D8000020034BD86910B1043000F034BDD6
:1009C400704700BFD8000020826810B50AB901F052
:1009D40055FFBDE81040C3681847000010B5044631
:1009E40020B9074840F2614101F065F9204601F061
:1009F4008BF90068836E13B16030FFF7E5FF10BD1B
:100A0400A0280008FFF7EABF38B5054620B9114809
:100A140040F2744101F04FF92B7F013B072B11D8B1
:100A2400DFE803F0150410111010101302242846F7
:100A340001F06AF90068063400EB041083680BB116
:100A4400FFF7C2FF38BD0324F1E70424EFE70124D4
:100A5400EDE700BFA0280008FFF7D6BFFFF7D4BF1B
:100A64007047000038B50E4A0E4B054618784FF40F
:100A74007A73B3FBF0F31068B0FBF3F000F0A8F85E
:100A8400044658B90F2D09D8024629464FF0FF30C5
:100A940000F04AF8044B20461D6038BD0120FCE7F5
:100AA40010000020000000200400002008B50B4BBB
:100AB4001A6842F400721A601A6842F480621A607A
:100AC4001A6842F480721A60032000F01BF80020B8
:100AD400FFF7C8FFFFF7C4FF002008BD003C024039
:100AE400034A044B11681B780B441360704700BF22
:100AF400F800002000000020014B1868704700BF78
:100B0400F80000200749CA6822F4E06203021204D4
:100B140003F4E063120C134343F0BF6343F4003364
:100B2400CB60704700ED00E0164B30B5DC68C4F3D1
:100B34000224C4F10705231D042D28BF0425062B18
:100B44004FF0FF338CBF033C002403FA05F521EA80
:100B54000501A34022EA0302A140002841EA02035E
:100B6400ACBF00F16040084A4FEA0313B8BF00F07D
:100B74000F00DBB2AABF00F56140135480F80033C4
:100B840030BD00BF00ED00E014ED00E0002808DBFC
:100B94000123420900F01F0003FA00F0014B43F85F
:100BA4002200704700E100E000280DDB4309012228
:100BB40000F01F0002FA00F02033044A42F8230038
:100BC400BFF34F8FBFF36F8F704700BF00E100E0AA
:100BD4000138B0F1807F0BD24FF0E023054A586111
:100BE400F02182F823100020072298611A617047CF
:100BF4000120704700ED00E0002809DB43090122D1
:100C040000F01F0002FA00F06033024A42F82300A9
:100C1400704700BF00E100E0704708B5FFF7FCFF34
:100C240008BD704710B5044650B1437903F0FF0284
:100C340013B90271FFF7F5FF01236371002010BDA2
:100C44000120FCE770B50446866DFFF755FF94F864
:100C54003530022B054606D080236365002384F8D3
:100C64003430012070BD23681A6822F016021A601D
:100C74005A6922F080025A61226C0AB9A26C1AB134
:100C84001A6822F008021A601A6822F001021A6037
:100C940023681B6813F001030AD1E16D3F228A40E7
:100CA400B260012284F8352084F834301846D9E73C
:100CB400FFF722FF401B0528EAD9202363650320A0
:100CC400002384F8350084F83430CBE790F83530CD
:100CD400022B03D08023436501207047026805235B
:100CE40080F83530136823F0010313600020704747
:100CF4002DE9F74FDFF884915E4A00230D68012443
:100D04009C4004EA050CAC4340F0A5804D6805F016
:100D140003044FEA43080326671E06FA08F6012F68
:100D24006FEA060634D8876807EA060ECF6807FA22
:100D340008F747EA0E078760476827EA0C0EC5F3F1
:100D440000179F4047EA0E074760C76807EA060E88
:100D54008F6807FA08F747EA0E07022CC76019D113
:100D64004FEAD30A00EB8A0A03F0070BDAF8207083
:100D74004FEA8B0B4FF00F0E0EFA0BFE27EA0E0E06
:100D84000F6907FA0BF747EA0E07CAF8207001E06B
:100D9400032CDAD1076804FA08F43E40264315F41C
:100DA400403F066057D04FF0000ACDF804A0D9F8B0
:100DB4004460314C46F48046C9F84460D9F8446034
:100DC40006F480460196019E23F0030606F1804650
:100DD40006F59C3603F0030ED6F808804FEA8E0E13
:100DE4000F2707FA0EF7A04228EA07073AD004F5BE
:100DF4008064A04238D004F58064A04236D004F563
:100E04008064A04234D004F58064A0420CBF042462
:100E1400072404FA0EF43C43B46094686FEA0C06A9
:100E2400EF0254BF34404CEA04049460D468AF0227
:100E340054BF34404CEA0404D4605468AF0354BF34
:100E440034404CEA040454601468ED0354BF344045
:100E54004CEA040414600133102B7FF44FAF03B049
:100E6400BDE8F08F5446D4E70124D2E70224D0E74A
:100E74000324CEE7003C0140000002400038024059
:100E8400044A5169014208B502D0506101F008F8E2
:100E940008BD00BF003C01402DE9F341044640B3C6
:100EA4000368DD0710D4236898075ED423681A0703
:100EB40000F1A08023685B0700F1C080A0690028CE
:100EC40040F0288100202BE08F4B9A6802F00C023E
:100ED400042A07D09A6802F00C02082A0BD15A6837
:100EE400510208D5884B1B689A03DCD56368002B34
:100EF400D9D1012014E06268B2F5803F13D11A6899
:100F040042F480321A60FFF7F7FD7F4E05463368DE
:100F14009B03C8D4FFF7F0FD401B6428F7D90320D6
:100F240002B0BDE8F081784DB2F5A02F2B6807D14F
:100F340043F480232B602B6843F480332B60E2E777
:100F440023F480332B602B6823F480232B60002A46
:100F5400D9D1FFF7D1FD06462B689F03A3D5FFF730
:100F6400CBFD801B6428F7D9D9E7674B9A6812F048
:100F74000C0F07D09A6802F00C02082A11D15B68A2
:100F84005E020ED4604A13689D0702D5E368012B04
:100F9400AFD11368216923F0F80343EAC103136056
:100FA40084E7E268594BB2B101221A60FFF7A4FD4D
:100FB400554D06462B68980707D52B68226923F000
:100FC400F80343EAC2032B6070E7FFF795FD801B2B
:100FD4000228EFD9A3E71A60FFF78EFD4A4E0546B3
:100FE400336899077FF562AFFFF786FD401B02283F
:100FF400F6D994E76269454B82B10122C3F8802E89
:10100400FFF77AFD404E0546736F9F073FF552AFD9
:10101400FFF772FD401B0228F6D980E7C3F8802E43
:10102400FFF76AFD384E0546736F98077FF542AFA8
:10103400FFF762FD401B0228F6D970E7324B1A6CA9
:1010440012F0805228D101921A6C42F080521A6434
:101054001B6C03F080530193019B01272C4D2B68DB
:10106400D9051BD5A368284D012B27D12B6F43F03D
:1010740001032B67FFF740FD234E054641F28838F4
:10108400336F9B0739D5002F3FF418AF1E4A136CFA
:1010940023F08053136411E70027DFE72B6843F440
:1010A40080732B60FFF728FD06462B68DA05D9D438
:1010B400FFF722FD801B0228F7D930E7052B04D166
:1010C4002B6F43F004032B67D0E72A6F22F0010251
:1010D4002A672A6F22F004022A67002BCAD1FFF77D
:1010E4000BFD41F2883806462B6F9807CBD5FFF7E6
:1010F40003FD801B4045F7D911E7FFF7FDFC401BBA
:101104004045BDD90BE700BF00380240000047420C
:1011140000700040364DAB6803F00C03082B3DD043
:10112400344B002202281A662BD1FFF7E5FC064651
:101134002B6899011FD4D4E907321343626A43EA46
:101144008213E26A43EA0263A26A5208013A43EA5A
:1011540002436B60274B264D01221A66FFF7CCFC35
:1011640004462B689A013FF5ADAEFFF7C5FC001BA2
:101174000228F6D9D3E6FFF7BFFC801B0228D7D993
:10118400CDE6FFF7B9FC04462B689B017FF59AAEC8
:10119400FFF7B2FC001B0228F6D9C0E601283FF491
:1011A400BFAE6B68E26903F4800191427FF4A1AEA3
:1011B400216A03F03F028A427FF49BAE616A47F6DC
:1011C400C0721A40B2EB811F7FF493AEA26A520838
:1011D40003F44031013AB1EB024F7FF48AAEE26A84
:1011E40003F07063B3EB026F3FF46CAE81E600BFB3
:1011F400003802400000474270B5224C88B00E46C9
:101204001546F8B90190236B43F001032363236B64
:10121400079003F001030193019B4FF4807C0223A8
:10122400CDE903C30323CDE9050303A91648FFF75A
:101234005FFDA36823F0EC6343EA06012943A16040
:1012440008B070BD00230293226B104842F00402E0
:101254002263226B079302F004020292029A4FF473
:1012640000710222CDE90312032203A9CDE905325C
:10127400FFF73EFDA36823F0784343EA060141EA01
:10128400C501DCE7003802400000024000080240CB
:10129400134908B58B6803F00C03042B1CD0082BEE
:1012A4001CD14A684B68496813F4800314BF0D4885
:1012B4000D48C1F3881118BF002302F03F02A1FBBF
:1012C4000001FEF765FF064B5B68C3F3014301337E
:1012D4005B00B0FBF3F008BD0248FCE70248FAE704
:1012E4000038024040787D010024F4002DE9F041EB
:1012F4000D46044610B90120BDE8F081444B1A683C
:1013040002F007028A4228D3226897072DD4D00717
:1013140041D43F4B1A6802F00702AA4266D82268F9
:1013240051076CD4130707D53A4A2169936823F40B
:10133400604343EAC1039360FFF7AAFF354B364A83
:101344009B68C3F30313D35CD840344B1860344B0D
:101354001868FFF787FB0020CEE7CAB21A701B6833
:1013640003F007038B42C6D1CEE72A4B12F0040FD9
:101374001EBF996841F4E0519960160742BF99680D
:1013840041F4604199602349A0688B6823F0F0031D
:1013940003438B60BBE762681E4B012A1CD11B68A8
:1013A40013F4003FA7D01B4EB36823F00303134389
:1013B400B360FFF7A1FB41F288380746B36862685F
:1013C40003F00C03B3EB820FA3D0FFF795FBC01B14
:1013D4004045F3D903208FE7911E01291B6802D8E9
:1013E40013F0007FDEE713F0020FDBE7EAB21A70B6
:1013F4001B6803F00703AB427FF47DAF8FE7054919
:10140400E0688B6823F4E05303438B608AE700BFF2
:10141400003C02400038024024290008100000204B
:10142400040000207047704703681A69910710B5DB
:1014340004460ED5DA6892070BD56FF002021A61E2
:10144400012202779B699B0777D0FFF707FB0023F4
:10145400237723681A69500710D5DA6851070DD528
:101464006FF004021A61022222779B6913F4407F11
:10147400204668D0FFF7F2FA0023237723681A691D
:1014840012070FD5DA6810070CD56FF008021A613D
:1014940004222277DB69990720465AD0FFF7DEFA47
:1014A4000023237723681A69D20610D5DA68D00698
:1014B4000DD56FF010021A6108222277DB6913F44C
:1014C400407F20464BD0FFF7C9FA002323772368D7
:1014D4001A69D10708D5DA68D20705D56FF0010279
:1014E4001A612046FFF78EFA23681A69100608D598
:1014F400DA68110605D56FF080021A61204600F003
:1015040036F823681A69520608D5DA68500605D5F4
:101514006FF040021A612046FFF785FF23681A69BD
:10152400910622D5DA6892061FD56FF02002204674
:101534001A61BDE8104000F019B8FFF78DFA204693
:10154400FFF770FF83E7FFF787FA2046FFF76AFF8C
:1015540092E7FFF781FA2046FFF764FFA0E7FFF761
:101564007BFA2046FFF75EFFAFE710BD7047704778
:10157400026802F10C0353E8003F23F490730C3229
:1015840042E8003102680029F2D102F1140353E861
:10159400003F23F0010302F1140C4CE80031002950
:1015A400F3D1036B012B0BD102F10C0353E8003F81
:1015B40023F0100302F10C0C4CE800310029F3D1A4
:1015C400202380F83E3000230363704790F83D30B9
:1015D400202B18D1A9B1A2B190F83C30012B12D024
:1015E400C28401628284016800232122036480F89A
:1015F4003C3080F83D20CA6842F08002CA60184638
:101604007047012070470220704708B5806B0023A3
:10161400C385C38400F0E0FB08BD704707B581684B
:10162400836A0268B1F5805F3ED1016900293ED129
:101634005268C2F3080223F8022B8362C38D013B74
:101644009BB2C385002B2CD10268D16821F0200104
:10165400D160D16821F48071D160516921F0010118
:101664005161202280F83E20026B012A026828D1B1
:10167400036302F10C0353E8003F23F0100302F16B
:101684000C0C4CE800310029F3D11368DB0605D5B6
:1016940001911368019353680193019B818DFFF7B6
:1016A400BCFF03B05DF804FB39B9016929B952687C
:1016B400D2B21A70836A0133BFE7526802F07F0224
:1016C400F7E700F083FBECE7036837B51A68D968DD
:1016D4005D6912F00F0F04460CD1950670D58D0686
:1016E4006ED590F83E30222B64D103B0BDE8304073
:1016F400FFF794BF05F0010001F4907505435FD036
:10170400D50705D5CB0542BF236C43F00103236401
:10171400550704D518B1236C43F0020323649307DF
:1017240004D518B1236C43F004032364150707D5CB
:1017340001F0200303431EBF236C43F0080323641A
:10174400236C002B36D0900608D58A0606D594F86B
:101754003E30222B02D12046FFF760FF23685B69ED
:10176400256C03F0400305F008051D43204623D0F3
:10177400FFF7FEFE226853695B0618D502F11403D5
:1017840053E8003F23F0400302F1140040E8003125
:101794000029F3D1A06B50B1724B0365FFF796FAA1
:1017A40040B1A06B036D03B0BDE83040184720463C
:1017B40000F012FB03B030BD00F00EFB2564F9E726
:1017C400206B012840F09180D50640F18E80C80638
:1017D40040F18B80002201921A6801925A680192AA
:1017E400019A5A6955064CD5A16B0A68526892B29F
:1017F400002ADFD0A08D9042DCD9E285CA69B2F517
:10180400807F36D003F10C0252E8002F22F480725C
:1018140003F10C0040E800210029F3D103F1140284
:1018240052E8002F22F0010203F1140040E80021E5
:101834000029F3D103F1140252E8002F22F04002F0
:1018440003F1140040E800210029F3D1202284F898
:101854003E20216303F10C0252E8002F22F0100213
:1018640003F10C0040E800210029F3D1A06BFFF73D
:10187400E9F9E38DA18DC91A89B22046FFF7CDFE9F
:1018840098E7E18D8AB2E18D89B2002992D0A18DC9
:10189400891A89B200298DD003F10C0252E8002F75
:1018A40022F4907203F10C0545E800200028F3D1DE
:1018B40003F1140252E8002F22F0010203F114058F
:1018C40045E800200028F3D1202284F83E2020633C
:1018D40003F10C0252E8002F22F0100203F10C0570
:1018E40045E800200028F3D1C7E7100628D50D06E7
:1018F40026D594F83D20212A7FF45CAFA168226AA2
:10190400B1F5805F17D12169A9B932F8021BC1F37F
:10191400080159602262E28C013A92B2E284002A00
:101924007FF448AFDA6822F08002DA60DA6842F0C5
:101934004002DA603EE7511C216212785A60EAE7FD
:1019440050067FF537AF4A067FF534AFDA6822F0E8
:101954004002DA60202384F83D30204600F039FA52
:1019640028E700BF0F16000890F83C30012B11D077
:101974000268242380F83D30D36823F00C0343F03D
:101984000803D360202380F83D30002380F83C30E6
:10199400184670470220704790F83C30012B11D054
:1019A4000268242380F83D30D36823F00C0343F00D
:1019B4000403D360202380F83D30002380F83C30BA
:1019C400184670470220704790F83D2090F83E007A
:1019D40010437047C285002382852222036480F865
:1019E4003E20026980F83C30816203681AB1DA68EB
:1019F40042F48072DA605A6942F001025A61DA688C
:101A040042F02002DA600020704770B490F83E6023
:101A1400202E10D161B15AB190F83C40012C0AD06B
:101A2400012480F83C400024046370BCFFF7D2BF5B
:101A3400012070BC70470220FBE72DE9F047024605
:101A44000D6895FAA5F44FF0010EB4FA84F4032757
:101A54004FF00F0C35FA04F001D1BDE8F0870EFA0F
:101A640004F32B4069D04868461E012E1ED893FA11
:101A7400A3F893FAA3F9B8FA88F896684FEA4808E5
:101A840007FA08F826EA0808B9FA89F98E684FEACD
:101A9400490906FA09F646EA08069660566826EAEF
:101AA4000308CE685E4348EA0606566093FAA3F834
:101AB400B8FA88F8D66893FAA3F94FEA480807FAFF
:101AC40008F826EA0808B9FA89F90E694FEA4909BB
:101AD40006FA09F646EA08060228D66019D193FAEE
:101AE400A3F6D1F8149056B3B6FA86FABAF1070FF2
:101AF40025DCD2F820804FEA8A0AB6FA86F60CFA78
:101B04000AFAB60028EA0A0809FA06F646EA0806B6
:101B1400166293FAA3F6B6FA86F6D2F8008093FA20
:101B2400A3F37600B3FA83F307FA06F65B0028EA18
:101B3400060600FA03F33343136001348AE74FEADD
:101B4400132898FAA8F6B6FA86F6D2F824A0B600B6
:101B54000CFA06F62AEA060A98FAA8F6B6FA86F6FF
:101B6400B60009FA06F646EA0A065662D1E70246C4
:101B7400006810F04000F0B527D1D1E900373B43AD
:101B84008F684D6916680C6A3B43CF683B430F6905
:101B94003B438F692B433B43CF6926F47F463B434A
:101BA400234326F0BF0633431360536823F0040332
:101BB40043EA1545B4F5005F556001D18B8C136180
:101BC400D36923F40063D361F0BD0120F8E7FEF785
:101BD40093BF704708B5FEF783FFFFF71EF8FFF7C2
:101BE400F8FF08BD7047000084B0114B0022019239
:101BF400196C41F080511964196C01F08051019104
:101C040001990292596C41F480415964596C01F470
:101C140080410291029903921A6B42F480521A6332
:101C24001B6B03F480530393039B04B0704700BF02
:101C3400003802400C4BD3F8FC20D2015EBFD3F82D
:101C4400FC2042F08072C3F8FC20084B00225A604A
:101C54001A6842F001021A6000BF00BF00BF586852
:101C6400B0FA80F04009704700ED00E0001000E099
:101C740008B5FFF7B9FFFFF7DDFFFEF717FFFFF722
:101C8400B1FF00F09BF9BDE808400148FEF7CABF68
:101C9400080000204B6813B94FF0FF3070478342AF
:101CA40001D1086870470C31F4E708B1FFF7F2BFBF
:101CB4004FF0FF307047FEE71049D1F8883043F405
:101CC4007003C1F888300E4B1A6842F001021A60A2
:101CD40000229A601A6822F0847222F480321A6018
:101CE400084A5A601A6822F480221A604FF43F02AC
:101CF400DA604FF000638B60704700BF00ED00E0D6
:101D040000380240103000240438704708B5074BEF
:101D140090F8612053F82200FFF756FE00F02200ED
:101D2400A0F122035842584108BD00BFFC00002026
:101D340008B5074B90F8612053F82200FFF744FEE2
:101D440000F02100A0F121035842584108BD00BF12
:101D5400FC00002038B515460446B8B1C16490F9BA
:101D64006000FEF721FFA36EB4F8721094F86100CE
:101D740013FA81F1064BAAB253F82000FFF726FCB0
:101D840094F96000BDE83840FEF700BF38BD00BFDD
:101D9400FC00002048B1436D013306D190F8612066
:101DA400024B53F82200FFF7DFBD7047FC00002010
:101DB40048B1436D013306D190F86120024B53F8CA
:101DC4002200FFF7E9BD7047FC000020436C043893
:101DD4001847836C043818471FB50368044618680D
:101DE40010F0010013D0002200921A6800925B6880
:101DF4000093009B201FFFF789FF40BB012204F1E1
:101E04005E01204604B0BDE81040FFF7FEBD19682E
:101E140011F0020106D001901A6801925B680193E7
:101E2400019BE7E71A6812F0040206D002911A68CF
:101E340002925B680293029BDCE719680907D9D513
:101E440003921A6803925B680393039BD2E704B07E
:101E540010BD000008B52520FEF7CEFE024B186821
:101E6400BDE80840FFF730BCFC00002008B5262080
:101E7400FEF7C2FE034B586818B1BDE80840FFF7EF
:101E840023BC08BDFC00002008B54720FEF7B4FEC3
:101E9400024B9868BDE80840FFF716BCFC00002020
:101EA4000023012803F1010202D040081346F8E799
:101EB4001421DBB24B43044A181D1044816811B14C
:101EC40013441B6918477047080100200120FEF7DE
:101ED400D7BF0220FEF7D4BF0420FEF7D1BF0820ED
:101EE400FEF7CEBF1020FEF7CBBF38B50524202562
:101EF400A8B2FEF7C5FF013C4FEA4505F8D138BD4D
:101F040038B506244FF48065A8B2FEF7B9FF013C4A
:101F14004FEA4505F8D138BD204B07211975082132
:101F240083F82810092183F83C100A21062283F83B
:101F3400501017211A7083F86410002283F8781067
:101F440083F88C1083F8A01083F8B4102821DA6089
:101F54001A625A639A64DA651A67C3F88420C3F86C
:101F64009820C3F8AC20C3F8C02083F8C810C3F885
:101F7400D42083F8DC10C3F8E82083F8F010C3F809
:101F8400FC2083F80411C3F8102183F81811C3F856
:101F9400242183F82C11C3F838217047080100204C
:101FA40038B5054CA4F5A075143C201DFEF7AAFC19
:101FB400AC42F9D138BD00BF4802002000B595B04D
:101FC400102200210AA800F09DFA1422002103A87F
:101FD40000F098FA284B002101911A6C42F08052CB
:101FE4001A641B6C254A03F080530193019B0291F0
:101FF400136823F4404343F400431360136803F469
:1020040040430293029B01224FF48033CDE908231D
:1020140002214FF480031920CDE90E134FF4A87365
:10202400CDE910034FF0040C072308A8CDE912C32F
:10203400FEF732FF18B112486521FFF73CFE0F236B
:102044000221CDE903314FF48052002303A8CDE9E6
:1020540005320793FFF74AF918B109487121FFF7D0
:102064002AFE4FF080624FF480010020FFF7C4F88D
:1020740015B05DF804FB00BF00380240007000405A
:10208400AC290008DFF834D00D480E490E4A00236D
:1020940002E0D458C4500433C4188C42F9D30B4A18
:1020A4000B4C002301E013600432A242FBD3FFF780
:1020B40003FE00F0F5F900F026F870470000012057
:1020C4000000002078000020942B000878000020F5
:1020D40060030020FEE7FFF77ABD38B5044648B137
:1020E400FFF775FD054600F01AF8FFF770FD431B76
:1020F400A342F8D338BD08B50320FEF703FDBDE8BD
:10210400084000F00AB808B5AFF30080FEF77AF88B
:10211400FEF78AF800F004F8FAE7FFF7A9BD704764
:1021240008B5044B2BB1044800F008F808B1AFF32C
:10213400008008BD0000000048020020B0F804310F
:10214400B0F80001181A00F03F007047B0F80431ED
:10215400B0F800219BB293421ABFD0F8F830985CD3
:102164004FF0FF30704790F80231B0F80601C0B26A
:10217400834227BFC3F13F03C018C01A00F1FF30E8
:10218400704707B503688DF807105B6801220DF1ED
:102194000701984703B05DF804FB000038B5426FAF
:1021A400B0F8723012FA83F303F03F03A0F87230F0
:1021B400B0F87220B0F86E3092B293421BD0B0F8EF
:1021C4007220B0F872400D4995B203F14002521BDF
:1021D400534203F03F03A4B202F03F0258BF5A42F5
:1021E400C4F140039A4228BF1A464267FFF7B2FD82
:1021F4004FF0FF3038BD0020FCE700BFA1210008EC
:1022040003682DE9F0479B680446884616469847BC
:1022140001232374D4F8E830B4F8029101338246E0
:10222400C9F1400904F1940708D194F80C312BB199
:10223400002384F80C313846FFF7ACFD23682046B0
:102244009B6898470028F9D035464D4501D8554537
:1022540015D9D145236828BFD1464A4641465B6813
:1022640020469847236820469B689847B4F8022183
:10227400A5EB0905C8448246C2F14009E5E7B4F874
:102284000221D4F8FC005319402B104419D82A46D3
:10229400414600F029F9A946B4F802311D4405F07D
:1022A4003F05A4F802513846FFF742FD30B90C4906
:1022B400C4F808914A463846FFF74CFD3046BDE85D
:1022C400F087C2F140094A46414600F00DF9D4F8BE
:1022D400FC00A5EB090208EB090100F005F9DBE7B6
:1022E400A1210008037C33B1B0F80221B0F8063113
:1022F4009BB29A42FAD17047C0F8EC30009BC0F808
:10230400F030914208BF4FF0FF3100F11103C0E9F2
:102314003921C0F8F83000F151020023A0F804314B
:10232400C0E93F23A0F806317047000073B54FF4AD
:102334007A7316460022C0E90123174B03604FF05D
:10234400FF33C0F8E830154B984204460D4616D1C9
:10235400134B9A6AC0F8E8205B6AC0F8E430012E97
:102364004FF0FF3308BFC4F8E83000932046D4E9A7
:1023740039214FF0FF33FFF7BFFF02B070BD0949A9
:102384002846FFF792FC0849C4F8E8002846FFF7FE
:102394008CFCC4F8E400E2E7EC2A000848020020C0
:1023A400542A00083429000870290008D0F8E830BD
:1023B400013310B504460ED10368DB68984794F8DE
:1023C4000C3143B9012384F80C3104F19400BDE8C5
:1023D4001040FFF7EDBC10BD10B50446FFF7E6FF53
:1023E400B4F80421B4F8003192B29A421FBFD4F871
:1023F400F820D05C013303F03F0314BFA4F800318C
:102404004FF0FF3010BD0000024903480022FFF7DF
:102414008DBF00BF001001404802002010B50446E3
:10242400FFF759FEE060236820465B69984700285F
:1024340008DAFFF750FEE368C01AA3689842F2D3A3
:102444004FF0FF3010BD2DE9F04107460C468E18C1
:102454000D46B542A5EB040807D03846FFF7DEFF6A
:10246400031E02DB05F8013BF3E74046BDE8F081BB
:102474002DE9F0410746884616461D4673B10024EF
:102484003846FFF7CBFF031E05DB434503D0335526
:102494000134A542F4D12046BDE8F0811C46FAE798
:1024A40070B50D4D0D4C641BA4100026A64209D135
:1024B4000B4D0C4C00F0E6F9641BA4100026A64258
:1024C40005D170BD55F8043B98470136EEE755F841
:1024D400043B98470136F2E7782B0008782B000874
:1024E400782B00088C2B00080A44914200F1FF333A
:1024F40000D1704710B511F8014B03F8014F914218
:10250400F9D110BD02440346934200D1704703F849
:10251400011BF9E708B5062000F02CF80120FEF7AE
:10252400E5F91F2938B504460D4604D9162303607E
:102534004FF0FF3038BD426C12B152F821304BB924
:10254400204600F031F82A4601462046BDE83840CE
:1025540000F018B8012B0AD0591C03D116230360CC
:102564000120E7E7002442F8254028469847002048
:10257400E0E70000024B01461868FFF7D2BF00BF36
:102584001400002038B5074D0023044608461146C0
:102594002B60FEF7ADF9431C02D12B6803B1236015
:1025A40038BD00BF5C030020FEF7AAB92DE9F0474F
:1025B400089D04468E46002B4DD18A42944669D923
:1025C400B2FA82F252B101FA02F3C2F1200120FA06
:1025D40001F10CFA02FC41EA030E94404FEA1C4854
:1025E400210CBEFBF8F61FFA8CF708FB16E341EA50
:1025F400034306FB07F199420AD91CEB030306F1D6
:10260400FF3080F01F81994240F21C81023E6344F6
:102614005B1AA4B2B3FBF8F008FB103344EA03449A
:1026240000FB07F7A7420AD91CEB040400F1FF33AF
:1026340080F00A81A74240F207816444023840EAEC
:102644000640E41B00261DB1D4400023C5E9004325
:102654003146BDE8F0878B4209D9002D00F0EF80A8
:102664000026C5E9000130463146BDE8F087B3FADB
:1026740083F6002E4AD18B4202D3824200F2F980C3
:10268400841A61EB030301209E46002DE0D0C5E9C6
:10269400004EDDE702B9FFDEB2FA82F2002A40F012
:1026A4009280A1EB0C014FEA1C471FFA8CFE012615
:1026B400200CB1FBF7F307FB131140EA01410EFBB9
:1026C40003F0884208D91CEB010103F1FF3802D260
:1026D400884200F2CB804346091AA4B2B1FBF7F05A
:1026E40007FB101144EA01440EFB00FEA64508D97D
:1026F4001CEB040400F1FF3102D2A64500F2BB80BA
:102704000846A4EB0E0440EA03409CE7C6F1200708
:10271400B34022FA07FC4CEA030C20FA07F401FA4E
:1027240006F31C43F9404FEA1C4900FA06F3B1FBD7
:10273400F9F8200C1FFA8CFE09FB181140EA01413C
:1027440008FB0EF0884202FA06F20BD91CEB0101D9
:1027540008F1FF3A80F08880884240F28580A8F131
:1027640002086144091AA4B2B1FBF9F009FB101183
:1027740044EA014100FB0EFE8E4508D91CEB010121
:1027840000F1FF346CD28E456AD90238614440EAC4
:102794000840A0FB0294A1EB0E01A142C846A64644
:1027A40056D353D05DB1B3EB080261EB0E0101FACD
:1027B40007F722FA06F3F1401F43C5E9007100262A
:1027C4003146BDE8F087C2F12003D8400CFA02FC80
:1027D40021FA03F3914001434FEA1C471FFA8CFE90
:1027E400B3FBF7F007FB10360B0C43EA064300FB80
:1027F4000EF69E4204FA02F408D91CEB030300F11E
:10280400FF382FD29E422DD9023863449B1B89B2D4
:10281400B3FBF7F607FB163341EA034106FB0EF35D
:102824008B4208D91CEB010106F1FF3816D28B420A
:1028340014D9023E6144C91A46EA004638E72E46D6
:10284400284605E70646E3E61846F8E64B45A9D2CE
:10285400B9EB020864EB0C0E0138A3E74646EAE73D
:10286400204694E74046D1E7D0467BE7023B6144EB
:1028740032E7304609E76444023842E708B5FFF717
:1028840049FE0000F8B500BFF8BC08BC9E4670477E
:0C289400F8B500BFF8BC08BC9E467047B9
:1028A000433A5C55736572735C54686F6D61735C19
:1028B000417070446174615C4C6F63616C5C417227
:1028C0006475696E6F31355C7061636B61676573E8
:1028D0005C53544D6963726F656C656374726F6E9F
:1028E0006963735C68617264776172655C73746D4F
:1028F00033325C322E322E305C6C696272617269E6
:1029000065735C537263577261707065725C737249
:10291000635C486172647761726554696D65722E9B
:10292000637070000000000000000000010203045A
:1029300006070809030000000044004012070000D9
:102940000A00000000100140120700000C00000007
:1029500000140140120800001700000000100140A0
:1029600012070000FFFFFFFF000000000000000052
:1029700002000000004400401207000009000000AF
:1029800000100140120700000B000000001401407D
:10299000120800001600000000100140120700009D
:1029A000FFFFFFFF0000000000000000433A5C55FD
:1029B000736572735C54686F6D61735C41707044D1
:1029C0006174615C4C6F63616C5C41726475696ECB
:1029D0006F31355C7061636B616765735C53544D37
:1029E0006963726F656C656374726F6E6963735C43
:1029F00068617264776172655C73746D33325C32E6
:102A00002E322E305C76617269616E74735C535441
:102A10004D3332463478785C46343031434328466F
:102A20002D552D59295F463430314328422D442DF0
:102A3000452928552D59295C76617269616E745F4C
:102A400055535445505045525F535F335F302E63AA
:102A50007070000000000000010000000200000093
:102A60000300000004000000050000000600000054
:102A70000700000008000000090000000A00000034
:102A80000B0000000C0000000D0000000E00000014
:102A90000F000000100000001100000012000000F4
:102AA00013000000140000001500000016000000D4
:102AB0001700000018000000190000001A000000B4
:102AC0001C0000001D0000001E0000001F00000090
:102AD0002D0000002E0000002F000000500000001C
:102AE00051000000000000000000000087210008E5
:102AF000052200086B210008E92200084121000896
:102B0000DD230008512100084B240008752400082B
:102B100000000000000000000000000000000000B5
:102B200000000000000000000000000000000000A5
:102B30000000000000000000000000000000000095
:102B40000000000000000000000000000000000085
:102B50000000000000000000000000000000000075
:102B60000000000000000000000000000000000065
:082B700040FAFF7F01000000A4
:102B7800FB200008ED010008750200081D1F000871
:042B88000D24000810
:082B8C00C9010008A51F0008A3
:102B940001000000100000000030024000000000AE
:102BA4000024F4001800002000000000302B00086E
:102BB400502B0008102B000800000000000000004B
:102BC4000000000000000000000000000000000001
:102BD40000000000000000000000000000000000F1
:102BE40000000000000000000000000000000000E1
:102BF40000000000000000000000000000000000D1
:082C04000000000000000000C8
:040000050800208946
:00000001FF
